:020000040000FA
:060000000A128A110C280F
:10000800FE00030EF6000A08F7000A128A11232AD6
:100018000A128A110F280A128A117F220A128A11DB
:10002800FA000A128A1180220A128A11FB00A20120
:10003800A301F001F101F201F301F40183010A12B5
:100048008A1126288316031788018901831603134A
:100058008501C0308600811316179617C0309500A9
:1000680087018801831203138501860187018801AE
:10007800831603130F178F160F120F148112811195
:1000880001158110011464308312031381008B164B
:100098000B118B150B108B170508A4002408F90009
:1000A800F801A101A001612879089C3EA400240858
:1000B800F9000130A4002408A0076430790203186D
:1000C80066286728582871287908F63EA40024086D
:1000D800F9000130A4002408A1070A3079020318A6
:1000E8007628772868280A30790203187C287D2822
:1000F800D2287908A4002408F800D2283F30A400A8
:100108002408F4005C290630A4002408F4005C29C3
:100118005B30A4002408F4005C294F30A4002408B4
:10012800F4005C296630A4002408F4005C296D30D2
:10013800A4002408F4005C297D30A4002408F400FD
:100148005C290730A4002408F4005C297F30A4004F
:100158002408F4005C296730A4002408F4005C2912
:100168007730A4002408F4005C297C30A40024081B
:10017800F4005C293930A4002408F4005C295E30BE
:10018800A4002408F4005C297930A4002408F400B1
:100198005C297130A4002408F4005C292008A4001C
:1001A800A5012508003A0319DA285C292408003A31
:1001B80003198228013A03198728033A03198C285E
:1001C800013A03199128073A03199628013A0319A5
:1001D8009B28033A0319A028013A0319A5280F3AC6
:1001E8000319AA28013A0319AF28033A0319B428B6
:1001F800013A0319B928073A0319BE28013A031925
:10020800C328033A0319C828013A0319CD285C29E1
:100218003F30A4002408F300E6290630A40024088F
:10022800F300E6295B30A4002408F300E6294F30E8
:10023800A4002408F300E6296630A4002408F3008B
:10024800E6296D30A4002408F300E6297D30A400D7
:100258002408F300E6290730A4002408F300E6295F
:100268007F30A4002408F300E6296730A40024089E
:10027800F300E6297730A4002408F300E6297C304F
:10028800A4002408F300E6293930A4002408F30068
:10029800E6295E30A4002408F300E6297930A4009A
:1002A8002408F300E6297130A4002408F300E629A5
:1002B8002108A400A5012508003A03196429E629A4
:1002C8002408003A03190C29013A03191129033AA1
:1002D80003191629013A03191B29073A031920297A
:1002E800013A03192529033A03192A29013A03195E
:1002F8002F290F3A03193429013A03193929033AE6
:1003080003193E29013A03194329073A03194829D1
:10031800013A03194D29033A03195229013A0319DD
:100328005729E6293F30A4002408F2005028063057
:10033800A4002408F20050285B30A4002408F2002E
:1003480050284F30A4002408F20050286630A4003A
:100358002408F20050286D30A4002408F200502828
:100368007D30A4002408F20050280730A400240897
:10037800F20050287F30A4002408F200502867308B
:10038800A4002408F20050287730A4002408F200C2
:1003980050287C30A4002408F20050283930A400EA
:1003A8002408F20050285E30A4002408F2005028E7
:1003B8007930A4002408F20050287130A4002408E1
:1003C800F20050287808A400A5012508003A03196E
:1003D800EE2950282408003A03199629013A0319EE
:1003E8009B29033A0319A029013A0319A529073AB9
:1003F8000319AA29013A0319AF29033A0319B429A1
:10040800013A0319B9290F3A0319BE29013A031908
:10041800C329033A0319C829013A0319CD29073A10
:100428000319D229013A0319D729033A0319DC29F8
:10043800013A0319E12950280A128A110C280B1CC9
:10044800262A272A382A83120313061B2C2A2D2A28
:10045800312A0130F50075088507861B342A352AAC
:10046800372A013085020B100B1D3B2A3C2A782ABB
:100478000B11643083120313810088017A037B0413
:10048800031D472A482A542A740887000814FA01C9
:10049800FB010130F0000030F100A201A301782A2D
:1004A80070037104031D592A5A2A662A73088700A3
:1004B8008814FA01FB01F001F1010130A2000030BB
:1004C800A300782A22032304031D6B2A6C2A782AA6
:1004D8007208870008150130FA000030FB00F001AF
:1004E800F101A201A301782A77088A00760E830019
:0A04F800FE0E7E0E090001340034F0
:04400E00D430FF3F6C
:00000001FF
