:060000000A128A11132907
:10000800F000030EF1000B1812200B1931200C1808
:100018007020710E8300F00E700E09000313831216
:10002800861A1D28A80A2808053C03181D2801302F
:10003800A808061B2628A90A2908143C03182628FC
:100048000A30A900861B2F28A90329080A3C031C8B
:100058002F281430A9000B100800031383128330D3
:1000680081000B118801211C4828A11C4D28211D45
:100078005228A11D5728211E5C28A11E6128211F76
:100088006628A11F6B2808002408870088142114FB
:100098000800250887000814A1140800260887000E
:1000A800881521150800270887000815A1150800DC
:1000B80028088700881621160800290887000816CE
:1000C800A11608002A0887008817211708002B089E
:1000D80087000817A101080003138312DC308E0083
:1000E8000B308F000C1026187D28A6188C2826198E
:1000F8009B28B30A3308023C031D8B28B301B003C5
:10010800031D8B282E08B1002610A61426110800FE
:10011800B30A3308023C031D9A28B301B103031D37
:100128009A282F08B2002610A61026150800B30A30
:100138003308023C031DA928B301B203031DA928F3
:0C0148002D08B0002614A6102611080097
:100200008A010A1482073F3406345B344F34663463
:100210006D347D3407347F34673477347C3439343B
:100220005E347934713442215D21642171218B1552
:100230000B10031383160C14031383120C100B17EB
:100240008B160B118B1703138312B301A60126140F
:100250000130A8000A30AD00AE00AF00A900B00028
:1002600082212808023C0319E9212808033C0319CC
:10027000F3212808043C0319FD212808053C031933
:100280000722302903178316880189010313831677
:100290008501860186160617861781139516151790
:1002A0009517961616179617870188010313831260
:1002B00085018601870188010800031383160F1743
:1002C0008F160F120F140800031383168112811169
:1002D00001118114011003138312833081000B116B
:1002E00008000313831210139016101690111011AA
:1002F0009010101403138312DC308E000B308F002B
:100300000C10080026188921A618A9212619C92130
:10031000080007303002031C8F29972108000430A1
:100320003002031C9529A1210800A6210800051010
:1003300085100515851505128512051785130610FC
:10034000080033180515331C051108000511851424
:10035000080007303102031CAF29B7210800043020
:100360003102031CB529C1210800C621080005146B
:1003700085100511851105128516051785130610C0
:10038000080033188516331C8512080085120516DF
:10039000080007303202031CCF29D721080004309F
:1003A0003202031CD529E1210800E62108000514CA
:1003B0008510051185150512851205138513061480
:1003C000080033180614331C0610080006108517A1
:1003D00008008614061186112908AA002A08B6000A
:1003E00052225F2208008610061586112908AB00EC
:1003F0002B08B60052225F220800861006118615CF
:100400002908AC002C08B60052225F22080086148E
:1004100006158615061F0F2A861F2C2A08002A0893
:10042000AD002B08AE002C08AF0086100611861117
:100430000130A800B0012D08B000A6012614031356
:100440008312833081000B1103138312DC308E0082
:100450000B308F000C100800861006118611AA01BF
:10046000AB010130A80008003F30A600A700A8009B
:10047000A9003008B6005222662208003F30A400CE
:10048000A500A800A9003108B60052226D2208007C
:100490003F30A400A500A600A7003208B6005222F3
:1004A00074220800B4010A30B602031C592AB40AA7
:1004B000532A0A30B607B5013608B50008003408DB
:1004C0000021AA0035080021AB00080034080021F3
:1004D000A40035080021A500080034080021A6006A
:1004E00035080021A700080034080021A8003508BD
:0604F0000021A900080034
:04400E00C430FF3F7C
:00000001FF
