:060000000A128A11142906
:10000800F000030EF1000B1844210B196021710E4A
:080018008300F00E700E0900D8
:100200008A010A148F0582073F3406345B344F3469
:1002100066346D347D3407347F34673477347C340E
:1002200039345E347934713426214C2153218B17B3
:100230008B150B108B160B1103138312050800216D
:1002400087006F212108002188001E2903178316CB
:100250008801890103138316850105168516051784
:100260008517860106148614811315149514161427
:100270009614870188010313831285018601870183
:1002800088010030A000080003138312061C850AB1
:10029000861C85030B100800031383160F178F1697
:1002A0000F120F1408000313831681128111011518
:1002B00081140114031383123D3081000B110800D7
:1002C000031383123D3081000B1103138312A00A24
:1002D0002008143C031D6E29A001A10A080010305B
:0802E00021020319A10108002D
:04400E00C430FF3F7C
:00000001FF
