:060000000A128A11142906
:10000800F000030EF1000B1810200B191820710EC8
:100018008300F00E700E090003138312061C850A74
:10002800861C85030B10080003138312B43081006B
:100038000B118801211C2828A11C2D28211D3228DC
:10004800A11D3728211E3C282408870008162114E2
:100058000800250887008815A11408002A088700C9
:100068000814211508002B0887008814A11508001A
:0A0078002C0887000815A1010800FC
:100200008A010A148F0582073F3406345B344F3469
:1002100066346D347D3407347F34673477347C340E
:1002200039345E3479347134292144214B218B17C0
:100230008B150B108B160B110313831258215F21A2
:100240000508A0000508A60066216E2178217E2100
:100250001E2903178316880189010313831685015C
:100260008601061486148113151495141614961419
:1002700087018801881608178817031383128501E0
:100280008601870188010800031383160F178F1654
:100290000F120F1408000313831681128111011528
:1002A0008114011003138312B43081000B11080074
:1002B00020080F39A200200E0F39A30008002208E1
:1002C0000021A40023080021A5000800A801643033
:1002D000A602031C6D29A80A672908006430A60736
:1002E000A9010A30A602031C7729A90A712908006E
:1002F0000A30A607A7012608A70008002808002141
:10030000AA0029080021AB0027080021AC00080042
:04400E00C430FF3F7C
:00000001FF
