:020000040000FA
:060000000A128A110C280F
:10000800FE00030EF9000A08FA000A128A11532AA0
:100018000A128A110F280A128A11BE220A128A119C
:10002800A4000A128A11BF220A128A11A500A0018F
:10003800A101A201A301F001F101F201F301F40110
:10004800F501F601F70183010A128A112B281130F4
:10005800831603178800890121308316031385004E
:10006800831203139F131F17C3309F051F140F30EC
:1000780083120313A600A60B3F28422883120313FA
:100088009F14831603139F139F121F1283120313C7
:100098009E01831603139E0186018701880183123E
:1000A80003138501860187018801831603130F173F
:1000B8008F160F120F14811281110115811001146E
:1000C80064308312031381000B17831603130C1774
:1000D800831203130C138B160B118B179F1875289B
:1000E800762880280F3083120313A600A60B7A28DF
:1000F8007D28831203139F147608A6002608F700AC
:10010800F501F401F301912877089C3EA600260822
:10011800F7000130A6002608F307643077020318B9
:10012800962897288828A1287708F63EA60026084A
:10013800F7000130A6002608F4070A3077020318F2
:10014800A628A72898280A3077020318AC28AD28D3
:1001580002297708A6002608F50002293F30A600E4
:100168002608F2008C290630A6002608F2008C2901
:100178005B30A6002608F2008C294F30A60026081E
:10018800F2008C296630A6002608F2008C296D3012
:10019800A6002608F2008C297D30A6002608F20069
:1001A8008C290730A6002608F2008C297F30A6008B
:1001B8002608F2008C296730A6002608F2008C2950
:1001C8007730A6002608F2008C297C30A600260885
:1001D800F2008C293930A6002608F2008C295E30FE
:1001E800A6002608F2008C297930A6002608F2001D
:1001F8008C297130A6002608F2008C297308A60005
:10020800A7012708003A03190A298C292608003A69
:100218000319B228013A0319B728033A0319BC286D
:10022800013A0319C128073A0319C628013A0319E4
:10023800CB28033A0319D028013A0319D5280F3AD5
:100248000319DA28013A0319DF28033A0319E428C5
:10025800013A0319E928073A0319EE28013A031964
:10026800F328033A0319F828013A0319FD288C29C1
:100278003F30A6002608F100162A0630A6002608F8
:10028800F100162A5B30A6002608F100162A4F3026
:10029800A6002608F100162A6630A6002608F100F6
:1002A800162A6D30A6002608F100162A7D30A60011
:1002B8002608F100162A0730A6002608F100162A9B
:1002C8007F30A6002608F100162A6730A600260807
:1002D800F100162A7730A6002608F100162A7C308D
:1002E800A6002608F100162A3930A6002608F100D3
:1002F800162A5E30A6002608F100162A7930A600D4
:100308002608F100162A7130A6002608F100162AE0
:100318007408A600A7012708003A03199429162A89
:100328002608003A03193C29013A03194129033ADE
:1003380003194629013A03194B29073A0319502989
:10034800013A03195529033A03195A29013A03199D
:100358005F290F3A03196429013A03196929033AF5
:1003680003196E29013A03197329073A03197829E1
:10037800013A03197D29033A03198229013A03191D
:100388008729162A3F30A6002608F0007228063072
:10039800A6002608F00072285B30A6002608F000A8
:1003A80072284F30A6002608F00072286630A60092
:1003B8002608F00072286D30A6002608F000722882
:1003C8007D30A6002608F00072280730A60026080F
:1003D800F00072287F30A6002608F00072286730E7
:1003E800A6002608F00072287730A6002608F0003C
:1003F80072287C30A6002608F00072283930A60042
:100408002608F00072285E30A6002608F000722840
:100418007930A6002608F00072287130A600260858
:10042800F00072287508A600A7012708003A0319EA
:100438001E2A72282608003A0319C629013A031908
:10044800CB29033A0319D029013A0319D529073AC8
:100458000319DA29013A0319DF29033A0319E429B0
:10046800013A0319E9290F3A0319EE29013A031948
:10047800F329033A0319F829013A0319FD29073A20
:100488000319022A013A0319072A033A03190C2A05
:10049800013A0319112A72280A128A110C288312A8
:1004A80003130C1F582A592A792A1F0CF800780CB4
:1004B8000F39003A031D612A622A692A1E0886003C
:1004C8001F08C33910389F00782A1F0CF800780CD1
:1004D8000F39043A031D712A722A782A1E08F80077
:1004E8007808F600C3309F050C130B1D7C2A7D2A63
:1004F800B72A0B1164308100880124032504031DE9
:10050800862A872A932A720887000814A401A5015D
:100518000130A2000030A300A001A101B72A2203E4
:100528002304031D982A992AA52A7108870088148C
:10053800A401A501A201A3010130A0000030A1007F
:10054800B72A20032104031DAA2AAB2AB72A700858
:10055800870008150130A4000030A500A201A301FE
:10056800A001A101B72A7A088A00790E8300FE0E3D
:080578007E0E0900013400347D
:04400E00D430FF3F6C
:00000001FF
