:060000000A128A11132907
:10000800F000030EF1000B1812200B1931200C1808
:100018007020710E8300F00E700E09000313831216
:10002800861A1D28A80A2808053C03181D2801302F
:10003800A808061B2628A90A2908143C03182628FC
:100048000A30A900861B2F28A90329080A3C031C8B
:100058002F281430A9000B100800031383128330D3
:1000680081000B118801211C4828A11C4D28211D45
:100078005228A11D5728211E5C28A11E6128211F76
:100088006628A11F6B2808002408870088142114FB
:100098000800250887000814A1140800260887000E
:1000A800881521150800270887000815A1150800DC
:1000B80028088700881621160800290887000816CE
:1000C800A11608002A0887008817211708002B089E
:1000D80087000817A101080003138312DC308E0083
:1000E8000B308F000C10B20A3208023C031D7F2827
:0800F800B201B003B1030800DE
:100200008A010A1482073F3406345B344F34663463
:100210006D347D3407347F34673477347C3439343B
:100220005E34793471344D2168216F217C218B1526
:100230000B10031383160C14031383120C100B17EB
:100240008B160B118B1703138312B201A601A701A2
:100250002614B6013614A4010130A8000A30AD00FE
:10026000AE00AF00A900B000B1008D2136186C229D
:10027000B6187622361980222808023C03191F225C
:100280002808033C031929222808043C03193322B7
:100290002808053C03193D223529031783168801D8
:1002A00089010313831685018601861606178617B2
:1002B0008113951615179517961616179617870119
:1002C00088010313831285018601870188010800D4
:1002D000031383160F178F160F120F140800031342
:1002E00083168112811101118114011003138312ED
:1002F000833081000B110800031383121013901632
:100300001016901110119010101403138312DC308A
:100310008E000B308F000C1008002618A021A618A4
:10032000B0212619BB21A619CA21261ADA21A61A3C
:10033000E521261BF421A61B052227181022080000
:1003400005108510051585150512851205178513ED
:10035000061007303002031D08000230A600080016
:1003600032180515321C051104303002031D080037
:100370000430A60008000511851401303002031D69
:1003800008000830A6002E08B100B0003610B614E0
:100390003611080005148510051185110512851602
:1003A00005178513061007303002031D08001030B2
:1003B000A600080032188516321C8512043030025F
:1003C000031D08002030A600080085120516013024
:1003D0003002031D08004030A6002F08B100B00015
:1003E0003610B61036150800051485100511851550
:1003F0000512851205138513061407303002031DFC
:10040000032A08008030A600080032180614321CA7
:10041000061004303002031D0800A601271408004E
:100420000610851701303002031D0800271026141E
:100430002D08B100B0003614B6103611080086142D
:10044000061186112908AA002A08B5008A229722D7
:1004500008008610061586112908AB002B08B50088
:100460008A22972208008610061186152908AC00FA
:100470002C08B5008A2297220800861406158615D6
:10048000061F452A861F642A08002A08AD002B088B
:10049000AE002C08AF008610061186110130A800AE
:1004A000A6012614AA01AB012D08B100B000031368
:1004B0008312833081000B1103138312DC308E0012
:1004C0000B308F000C100800861006118611AA014F
:1004D000AB010130A80008003F30A600A700A8002B
:1004E000A9003108B5008A229E2208003F30A400EE
:1004F000A500A800A9003108B5008A22A52208009D
:100500003F30A400A500A600A7003108B5008A224C
:10051000AC220800B3010A30B502031C912AB30AC9
:100520008B2A0A30B507B4013508B4000800330837
:100530000021AA0034080021AB0008003308002184
:10054000A40034080021A500080033080021A600FB
:1005500034080021A700080033080021A80034084F
:060560000021A9000800C3
:04400E00C430FF3F7C
:00000001FF
