:100000000A128A1103280317831688018901031332
:1000100083168501051485140515851505168601B9
:1000200006168616061786178701071687160717FE
:10003000871788018816081788170313831285010C
:1000400086018701880105182E208518342005199E
:10005000382085193C20051A402023280A128A11CD
:1000600005183028860A08008518342886030800F9
:1000700005193828870A080085193C2887030800D5
:0C008000051A4028070806078800080041
:04400E00C130FF3F7F
:00000001FF
