:020000040000FA
:060000000A128A11D12F43
:100940007E088A007F0882000A128A11A0240A12F7
:100950008A118000840A04087D0603190034FF0A06
:100960000319FE0AA42C7008F2007108F300BE2CD3
:100970000130F2070318F30A0030F307720884000D
:100980008317731C83130008031DC72CC82CB82CB5
:1009900070087202F0007108031C710A7302F10002
:1009A0000800513475346534203461346334633461
:1009B00069346F346E342034643465347334653490
:1009C0006134203465346A34653463347534743486
:1009D00061347234003428343334293420344334BD
:1009E00061346D346234693461347234203450348B
:1009F0004F3452345434423400342834323429349D
:100A00002034433461346D34623469346134723477
:100A1000203450344F34523454344134003451343F
:100A2000753465342034763461346C346F34723408
:100A30002034643465347334653461342034643470
:100A40006534733470346C346534673461347234B3
:100A5000203465346E34203450344F34523454349E
:100A6000413400342834313429342034443465345A
:100A7000733470346C3465346734613472342034C8
:100A800063346134643465346E34613420346434E6
:100A900065342034633461347234613463347434C3
:100AA00065347234653473340034513475346534CC
:100AB0002034763461346C346F34723420346434CE
:100AC000653473346534613420346434653473348C
:100AD00070346C3465346734613472342034653476
:100AE0006E34203450344F34523454344234003451
:100AF0004C34613420345534563447342034653412
:100B0000733420346C346134203475346E34693479
:100B10007634653472346934643461346434203436
:100B20002334313420346434653420344334653420
:100B30006E34743472346F3461346D3465347234AD
:100B400069346334613400348316031788018901E2
:100B5000831603138501860188018312031385011F
:100B6000860187018801831603130F178F160F164E
:100B70000F141813981618121815831203139817C8
:100B800018131816831603178715CF30831603130F
:100B900099009A018B170B178C16831203138C1272
:100BA000F701F801F22D0230F6000430F500BA30FA
:100BB000F400F40BD92DF50BD92DF60BD92D00002F
:100BC000831203130C1EE52DE62DEC2D7708203E35
:100BD00084008313000899000130F7070318F80A0E
:100BE0000030F8072030F0000030F1000A128A11BE
:100BF000B3240A128A1178087102031D012E7708A6
:100C000070020318042E052ED32D0D30831203130A
:100C10009900F701F8012B2E0230F6000430F500A0
:100C2000BA30F400F40B122EF50B122EF60B122E26
:100C30000000831203130C1E1E2E1F2E252E770874
:100C4000C33E84008313000899000130F70703189E
:100C5000F80A0030F807C330F0000030F1000A1243
:100C60008A11B3240A128A1171087802031D3A2EE0
:100C700070087702031C3D2E3E2E0C2E0D30831281
:100C800003139900F701F801642E0230F6000430D6
:100C9000F500BA30F400F40B4B2EF50B4B2EF60B8F
:100CA0004B2E0000831203130C1E572E582E5E2E5F
:100CB00077084C3E84008313000899000130F70741
:100CC0000318F80A0030F8074C30F0000030F1004B
:100CD0000A128A11B3240A128A1171087802031DBC
:100CE000732E70087702031C762E772E452E0D305A
:100CF000831203139900F701F8019D2E0230F600CC
:100D00000430F500BA30F400F40B842EF50B842E79
:100D1000F60B842E0000831203130C1E902E912ECE
:100D2000972E77083A3E840083130008990001301B
:100D3000F7070318F80A0030F8073A30F0000030DF
:100D4000F1000A128A11B3240A128A11710878027A
:100D5000031DAC2E70087702031CAF2EB02E7E2E22
:100D60000D308312031399000230F6000430F500B1
:100D7000BA30F400F40BBA2EF50BBA2EF60BBA2EDD
:100D800000000D308312031399008C1EC82EC92E4B
:100D9000C52E1A08F400F5017408F9007508FA0068
:100DA000BE2FF701F801F32E0230F6000430F500F3
:100DB000BA30F400F40BDA2EF50BDA2EF60BDA2E3D
:100DC0000000831203130C1EE62EE72EED2E77088B
:100DD000B33E84008317000899000130F707031819
:100DE000F80A0030F807B330F0000130F1000A12C1
:100DF0008A11B3240A128A1171087802031D022F86
:100E000070087702031C052F062FD42E0D30831295
:100E1000031399000230F6000430F500BA30F400F4
:100E2000F40B102FF50B102FF60B102F00000D30C8
:100E3000831203139900D02DF701F8013E2F0230E1
:100E4000F6000430F500BA30F400F40B252FF50B52
:100E5000252FF60B252F0000831203130C1E312FB4
:100E6000322F382F7708A03E8400831300089900A2
:100E70000130F7070318F80A0030F807A030F00037
:100E80000030F1000A128A11B3240A128A11710883
:100E90007802031D4D2F70087702031C502F512F2D
:100EA0001F2F0D308312031399000230F600043017
:100EB000F500BA30F400F40B5B2FF50B5B2FF60B4B
:100EC0005B2F00000D308312031399008C1E692FD5
:100ED0006A2F662F1A088500D02DF701F8018F2F91
:100EE0000230F6000430F500BA30F400F40B762F2F
:100EF000F50B762FF60B762F0000831203130C1ED2
:100F0000822F832F892F7708903E84008317000853
:100F100099000130F7070318F80A0030F807A030ED
:100F2000F0000030F1000A128A11B3240A128A116B
:100F300071087802031D9E2F70087702031CA12FF1
:100F4000A22F702F0D308312031399000230F60088
:100F50000430F500BA30F400F40BAC2FF50BAC2FD5
:100F6000F60BAC2F00000D308312031399008C1E7A
:100F7000BA2FBB2FB72F1A088600D02D7A08003A57
:100F80000319C32FD02D7908313A0319D12E033A12
:100F900003191C2F013A03196D2FD02D0A128A1143
:100FA00000288317DF30FD000530FE005530FF00BC
:100FB000903084000A128A11A4240A128A11831321
:100FC000E630FD000530FE000F30FF00A030840049
:100FD0000A128A11A4240A128A115E30FD0004301C
:100FE000FE00D130FF00203084000A128A11A424B0
:100FF0000A128A11F901FA0183010A128A11A42D39
:04400E00D430FF3F6C
:00000001FF
