:020000040000FA
:060000000A128A110C280F
:10000800FE00030EF2000A08F3000A128A111328F0
:100018000A128A110F2883010A128A118228831270
:1000280003130C1F182819287B281F0CF000700CCC
:100038000F39003A031D212822284B281E08F000FA
:100048000310700C7C3E95001E080139F000F00E7C
:10005800F00D17087006DF39700697008316031332
:100068001E08F00007300310F00CFF3E031D372870
:100078007008F100F10E8312031317087106EF39A7
:10008800710697001F08C33910389F007A281F0C83
:10009800F000700C0F39043A031D532854287A28AD
:1000A8001E08F0000310700C7C3E9B001E080139EE
:1000B800F000F00EF00D1D087006DF3970069D0087
:1000C800831603131E08F00007300310F00CFF3EE0
:1000D800031D69287008F100F10E831203131D082F
:1000E8007106EF3971069D00C3309F050C13730824
:1000F8008A00720E8300FE0E7E0E090011308316F0
:1001080003178800890121308316031385008601AF
:1001180088018312031385018601870188019F17CF
:100128001F13C3309F051F142130F400F40B9A28C5
:10013800831203139F14831603139F139F121F1216
:10014800831203139E01831603139E013F3083120B
:10015800031397051708F0390C3897000F309500EE
:10016800CF3097058C10033092041215FF30831698
:100178000313920083128C1CC228C328BE288C103B
:10018800831603130711831203131D08F0390C3863
:100198009D000F309B009D121D12831603138710BC
:1001A8000F178F160F160F140B170C178312031344
:1001B8000C138B179F18E128E228DE282130F40061
:1001C800F40BE428831203139F14DE280A128A1101
:0201D8000C28F1
:04400E00D430FF3F6C
:00000001FF
