:060000000A128A11132907
:10000800F000030EF1000B1912200C1824208C1894
:100018003320710E8300F00E700E09000313831253
:10002800833081000B11880121181E2824088700BD
:10003800881421282508870008140130A106080023
:1000480003138312DC308E000B308F000C10A60ACD
:100058002608023C031D3228A601A80A08009101BF
:100068008C10A70A27080A3C031D4028A701051879
:0A0078003F28051440280510080079
:100200008A010A1482073F3406345B344F34663463
:100210006D347D3407347F34673477347C3439343B
:100220005E34793471342D2144214B2158216921C8
:10023000031383160C148C14031383120C108C10EC
:100240000B178B160B118B17031383127C21832141
:100250002808A0008A2191212629031783168801E6
:10026000890103138316850186018701880108151A
:100270008815081688160817881703138312850136
:100280008601870188010800031383160F178F1654
:100290000F120F140800031383168112811101112C
:1002A0008114011003138312833081000B110800A5
:1002B0000313831210139016101690111011901042
:1002C000101403138312DC308E000B308F000C10DF
:1002D000080003138312921792151212921212172A
:1002E000121512149214031383169C3092000313F8
:1002F000831291018C10080020080F39A200200EF3
:100300000F39A300080022080021A40023080021BF
:10031000A5000800051C9029081C8F299029870139
:100320000800051C9729881C962997298701080031
:04400E00C430FF3F7C
:00000001FF
