:060000000A128A11142906
:100200008A010A148F0582073F3406345B344F3469
:1002100066346D347D3407347F34673477347C340E
:1002200039345E3479347134392122214021031369
:1002300083120030A0000B1D1B294B21860A4F2181
:1002400062211B290313831285018601870188011E
:100250000313831685010514851486010616861678
:1002600006178617870188010317831688018901FD
:100270000800031383160F138F160F120F140800B4
:1002800003138316811281110115811401140313C4
:1002900083124B210800863081000B1108000518DD
:1002A000542185185B21080005185429A00A20084C
:1002B00000218700080085185B29A0032008002181
:1002C0008700080020080602031969210319081095
:1002D000080008144B21BC30A100A10B6D29860138
:0202E000080014
:04400E00C430FF3F7C
:00000001FF
