:020000040000FA
:060000000A128A110C280F
:10000800FE00030EF2000A08F3000A128A11FF2DFF
:100018000A128A110F288317EF30FD000730FE00FF
:100028001D30FF00903084000A128A1582270A12B8
:100038008A113830FD000F30FE00D830FF00103034
:1000480084000A128A1582270A128A118313ED3056
:10005800FD000730FE007C30FF00A03084000A124B
:100068008A1582270A128A115030FD000730FE00D7
:10007800C930FF00203084000A128A1582270A122C
:100088008A11DF01E001E101E201E301E401E50198
:10009800E601E701E801E901F601F701F801F901D4
:1000A80083010A128A1158280F3083160317880013
:1000B80089010F30831603138500033086008030D2
:1000C800870088018312031385018601870188014F
:1000D800081483160313811316149614033095001D
:1000E8001813981618121815831203139817181353
:1000F8001816831603178715CF3083160313990034
:100108009A01831203139F171F13C3309F051F14EF
:10011800203083120313DD00DD0B902800008312CA
:1001280003139F14831603139F139F121F12831226
:1001380003139E01831603139E01831203131708EA
:100148003F39403897001708F0390C3897000F30BE
:100158009500CF3097058C10033092041215FF30AC
:1001680083160313920083128C1CBB28BC28B72863
:100178008C10831603130F178F160F160F14811286
:1001880081110108F83901388100CE308312031338
:1001980081008B150B100B17831603130C17831292
:1001A80003130C138B160B118B17F601F701F828A4
:1001B8000D3083120313DE00FB30DD00DD0BE22877
:1001C800DE0BE228831203130C1EEB28EC28F2281E
:1001D80076084B3E84008313000899000130F60727
:1001E8000318F70A0030F7074B30F4000030F50029
:1001F8000A128A1591270A128A1177087502031DB7
:1002080007297608740203180A290B29DC280A3002
:10021800831203139900F601F7012E290D3083127A
:100228000313DE00FB30DD00DD0B1829DE0B182977
:10023800831203130C1E2129222928297608A03E9F
:1002480084008313000899000130F6070318F70AA1
:100258000030F707A030F4000030F5000A128A15C4
:1002680091270A128A1175087702031D3D2974081F
:100278007602031C4029412912290A3083120313EC
:100288009900F601F70164290D3083120313DE008B
:10029800FB30DD00DD0B4E29DE0B4E2983120313E4
:1002A8000C1E572958295E297608DB3E84008317DF
:1002B800000899000130F6070318F70A0030F7071D
:1002C800DB30F4000130F5000A128A1591270A1272
:1002D8008A1175087702031D732974087602031CB6
:1002E8007629772948290A30831203139900F601E1
:1002F800F7019A290D3083120313DE00FB30DD006D
:10030800DD0B8429DE0B8429831203130C1E8D292F
:100318008E2994297608C73E84008317000899001F
:100328000130F6070318F70A0030F707C730F40062
:100338000130F5000A128A1591270A128A117508E8
:100348007702031DA92974087602031CAC29AD297C
:100358007E290A30831203139900F601F701D02988
:100368000D3083120313DE00FB30DD00DD0BBA29EC
:10037800DE0BBA29831203130C1EC329C429CA2908
:100388007608AD3E84008317000899000130F6070F
:100398000318F70A0030F707AD30F4000130F50014
:1003A8000A128A1591270A128A1175087702031D05
:1003B800DF2974087602031CE229E329B4290A30EC
:1003C8008312031399000D3083120313DE00FB30F0
:1003D800DD00DD0BED29DE0BED290A308312031356
:1003E80099008C1EF829F929F5291A08DD00DE0183
:1003F8005D08DF005E08E000E92DF601F701202A1C
:100408000D3083120313DE00FB30DD00DD0B0A2AFA
:10041800DE0B0A2A831203130C1E132A142A1A2A23
:100428007608223E84008313000899000130F607FD
:100438000318F70A0030F7072230F4000030F500FF
:100448000A128A1591270A128A1175087702031D64
:100458002F2A74087602031C322A332A042A0F3002
:1004680083120313D4000030D5006608FC3ED00088
:10047800FF3003180030D100B430D2000030D30070
:100488000A128A15B1270A128A1183120313510816
:10049800D7005008D6000A128A11B4260A128A1107
:1004A800831203135408DD005D08F9003030DD00C5
:1004B8005D08F8003030DD005D08E2003030DD0016
:1004C8005D08E100702A79089C3EDD005D08F900AE
:1004D8000130DD005D08E107643079020318752AF0
:1004E800762A672A802A7908F63EDD005D08F90039
:1004F8000130DD005D08E2070A3079020318852A19
:10050800862A772A0A30790203188B2A8C2A912A9C
:1005180079087807DD005D08F8006108DD005D08EE
:10052800E7006208DD005D08E8007808DD005D0886
:10053800E900F601F701BC2A0D3083120313DE002F
:10054800FB30DD00DD0BA62ADE0BA62A831203137F
:100558000C1EAF2AB02AB62A7608673E8400831399
:10056800000899000130F6070318F70A0030F7076A
:100578006730F4000030F5000A128A1591270A1234
:100588008A1175087702031DCB2A74087602031CAA
:10059800CE2ACF2AA02A0A308312031399000D30DD
:1005A80083120313DE00FB30DD00DD0BD92ADE0BDE
:1005B800D92A0A30831203139900D928F601F701C2
:1005C800012B0D3083120313DE00FB30DD00DD0B41
:1005D800EB2ADE0BEB2A831203130C1EF42AF52AEE
:1005E800FB2A7608DA3E840083130008990001305C
:1005F800F6070318F70A0030F707DA30F40000307E
:10060800F5000A128A1591270A128A1175087702CD
:10061800031D102B74087602031C132B142BE52AD8
:100628000F3083120313D4000030D5006508FC3E58
:10063800D000FF3003180030D100B430D2000030B1
:10064800D3000A128A15B1270A128A1183120313DA
:100658005108D7005008D6000A128A11B4260A1287
:100668008A11831203135408DD005D08F900303045
:10067800DD005D08F8003030DD005D08E200303054
:10068800DD005D08E100512B79089C3EDD005D0826
:10069800F9000130DD005D08E107643079020318D4
:1006A800562B572B482B612B7908F63EDD005D0849
:1006B800F9000130DD005D08E2070A30790203180D
:1006C800662B672B582B0A30790203186C2B6D2B7D
:1006D800722B79087807DD005D08F8006108DD00F5
:1006E8005D08E7006208DD005D08E8007808DD00C5
:1006F8005D08E900F601F7019D2B0D308312031305
:10070800DE00FB30DD00DD0B872BDE0B872B831231
:1007180003130C1E902B912B972B7608673E8400B1
:100728008313000899000130F6070318F70A003010
:10073800F7076730F4000030F5000A128A15912790
:100748000A128A1175087702031DAC2B7408760209
:10075800031CAF2BB02B812BCF2AF601F701D02B2E
:100768000D3083120313DE00FB30DD00DD0BBA2BE6
:10077800DE0BBA2B831203130C1EC32BC42BCA2BFC
:100788007608C73E84008313000899000130F607F5
:100798000318F70A0030F707C730F4000030F500F7
:1007A8000A128A1591270A128A1175087702031D01
:1007B800DF2B74087602031CE22BE32BB42B0F30DB
:1007C80083120313D4000030D5006408FC3ED00027
:1007D800FF3003180030D100B430D2000030D3000D
:1007E8000A128A15B1270A128A11831203135108B3
:1007F800D7005008D6000A128A11B4260A128A11A4
:10080800831203135408DD005D08F9003030DD0061
:100818005D08F8003030DD005D08E2003030DD00B2
:100828005D08E100202C79089C3EDD005D08F90098
:100838000130DD005D08E107643079020318252CDA
:10084800262C172C302C7908F63EDD005D08F900BF
:100858000130DD005D08E2070A3079020318352C03
:10086800362C272C0A30790203183B2C3C2C412CBF
:1008780079087807DD005D08F8006108DD005D088B
:10088800E7006208DD005D08E8007808DD005D0823
:10089800E900F601F7016C2C0D3083120313DE001A
:1008A800FB30DD00DD0B562CDE0B562C83120313B8
:1008B8000C1E5F2C602C662C7608673E8400831320
:1008C800000899000130F6070318F70A0030F70707
:1008D8006730F4000030F5000A128A1591270A12D1
:1008E8008A1175087702031D7B2C74087602031C95
:1008F8007E2C7F2C502CCF2AF601F7019F2C0D302F
:1009080083120313DE00FB30DD00DD0B892CDE0BC8
:10091800892C831203130C1E922C932C992C760885
:10092800B43E84008313000899000130F6070318C9
:10093800F70A0030F707B430F4000030F5000A1267
:100948008A1591270A128A1175087702031DAE2CA1
:1009580074087602031CB12CB22C832C8312031367
:1009680020032104031DB92CBA2CED2CF601F70144
:10097800D92C0D3083120313DE00FB30DD00DD0BB4
:10098800C32CDE0BC32C831203130C1ECC2CCD2CD2
:10099800D32C7608433E8400831300089900013065
:1009A800F6070318F70A0030F7074330F400003061
:1009B800F5000A128A1591270A128A11750877021A
:1009C800031DE82C74087602031CEB2CEC2CBD2CC0
:1009D8001F2DF601F7010C2D0D3083120313DE00D5
:1009E800FB30DD00DD0BF62CDE0BF62C8312031337
:1009F8000C1EFF2C002D062D7608353E840083132F
:100A0800000899000130F6070318F70A0030F707C5
:100A18003530F4000030F5000A128A1591270A12C1
:100A28008A1175087702031D1B2D74087602031CB2
:100A38001E2D1F2DF02C0A308312031399000D3040
:100A480083120313DE00FB30DD00DD0B292DDE0BE6
:100A5800292D0A30831203139900F601F701502D4E
:100A68000D3083120313DE00FB30DD00DD0B3A2D61
:100A7800DE0B3A2D831203130C1E432D442D4A2DF1
:100A88007608103E84008317000899000130F607A5
:100A98000318F70A0030F7071030F4000130F500AA
:100AA8000A128A1591270A128A1175087702031DFE
:100AB8005F2D74087602031C622D632D342D0A30D5
:100AC8008312031399000D3083120313DE00FB30E9
:100AD800DD00DD0B6D2DDE0B6D2D0A308312031347
:100AE80099008C1E782D792D752D1A08DD00DE01F0
:100AF8005D08DF005E08E00031305F066004031D1A
:100B0800862D872DD928F601F701A62D0D308312E1
:100B18000313DE00FB30DD00DD0B902DDE0B902D86
:100B2800831203130C1E992D9A2DA02D7608903E42
:100B380084008317000899000130F6070318F70AA4
:100B48000030F7079030F4000130F5000A128A15DA
:100B580091270A128A1175087702031DB52D7408AA
:100B68007602031CB82DB92D8A2D0A30831203137F
:100B780099000D3083120313DE00FB30DD00DD0B1E
:100B8800C32DDE0BC32D0A308312031399008C1E6C
:100B9800CE2DCF2DCB2D1A08DD00DE015D08DF003C
:100BA8005E08E00031305F066004031DDC2DDD2D9A
:100BB800E42D17083F394038970008148810D928C1
:100BC800C030970408108814D9286008003A03191F
:100BD800EE2DD9285F08313A0319012A033A03197F
:100BE800E22A013A0319B12B073A0319802CD928B4
:100BF8000A128A110C28831203130C1F042E052EC7
:100C0800652E1F0CF000700C0F39003A031D0D2ED5
:100C18000E2E202E1E08F00004300310F00CFF3EAC
:100C2800031D112E7008043EF1007108E6001F082C
:100C3800C33904389F00642E1F0CF000700C0F3964
:100C4800013A031D282E292E3B2E1E08F0000430E1
:100C58000310F00CFF3E031D2C2E7008043EF1001B
:100C68007108E5001F08C33908389F00642E1F0C5F
:100C7800F000700C0F39023A031D432E442E562EF5
:100C88001E08F00004300310F00CFF3E031D472E31
:100C98007008043EF1007108E4001F08C3390C38DD
:100CA8009F00642E1F0CF000700C0F39033A031DCF
:100CB8005E2E5F2E642E1E089500C3309F05642E9D
:100CC8000C130B1D682E692E902E0B11CE3081004F
:100CD8000130F0007008E307630866020318752EF8
:100CE800762E772E07106308650203187C2E7D2E5A
:100CF8007E2E8710630864020318832E842E852EA7
:100D08008711C9306302031C8A2E8B2E8F2E07147D
:100D180087148715E3019F140B1C932E942EAD2E78
:100D28000618972E982EA22E17083F39403897009C
:100D38000130A0000030A100081488108618A52EE4
:100D4800A62EAC2EC0309704A001A101081088146B
:100D58000B1073088A00720E8300FE0E7E0E0900C7
:100D680083120313DA01D51FBA2EBB2EC22ED40963
:100D7800D509D40A0319D50ADA01DA0AD71FC52E0C
:100D8800C62ECF2ED609D709D60A0319D70A01309D
:100D9800D8005808DA06DB01DC01540855040319A9
:100DA800D62ED72E0E2FD901D90AE52E01300310E1
:100DB800D40DD50DFF3E031DDB2E0130D800580899
:100DC800D907D51FE82EE92EDA2E01300310DB0DE6
:100DD800DC0DFF3E031DEA2E55085702031DF62EB3
:100DE80054085602031CF92EFA2E012F5408D60275
:100DF8005508031CD703D7025B1401300310D50C28
:100E0800D40CFF3E031D022F0130D902031D0D2F04
:100E18000E2FE92E5A080319122F132F182FDB094A
:100E2800DC09DB0A0319DC0A5C08D5005B08D4007E
:100E3800080031342934203448346F347234613432
:100E4800723469346F345F345F345F345F34323402
:100E5800293441346E34743465342D3468346F3435
:100E680072346134723469346F3400342834343461
:100E780029342034533465346E347434693464341A
:100E88006F3420346434653420346D346F347434F2
:100E98006F34723420344434433400340034003422
:100EA800283433342934203450346F34733469345B
:100EB800633469346F346E34203473346534723477
:100EC80076346F34333400342834323429342034BF
:100ED80050346F3473346934633469346F346E3426
:100EE800203473346534723476346F3432340034D9
:100EF800283431342934203450346F34733469340D
:100F0800633469346F346E34203473346534723426
:100F180076346F3431340034533465346E34743479
:100F2800693464346F3420346734693472346F340C
:100F380020346534733420343D3420340034503444
:100F48006F3473346934633469346F346E342034E5
:100F580073346534723476346F34333420343D342A
:100F68002034003450346F34733469346334693452
:100F78006F346E34203473346534723476346F349D
:100F8800323420343D3420340034013400345034B9
:100F98006F3473346934633469346F346E34203495
:100FA80073346534723476346F34313420343D34DC
:100FB8002034003441346E34743465342D3468344C
:100FC8006F3472346134723469346F3400340034ED
:100FD80048346F3472346134723469346F34003495
:0A0FE8004D3445344E3455340034C6
:101EFC007E088A007F0882000A128A157E270A1241
:101F0C008A158000840A04087D0603190034FF0A30
:101F1C000319FE0A822F740883120313D00075086C
:101F2C00D1009E2F0130D0070318D10A0030D10701
:101F3C00500884008317511C83130008031DA72F1E
:101F4C00A82F982F74085002F4007508031C750A0A
:101F5C005102F5000800F401F50183120313501C23
:101F6C00B82FB92FBF2F5208F4070318F50A5308DE
:101F7C00F50701300310D20DD30DFF3E031DC02F0A
:101F8C0001300310D10CD00CFF3E031DC72F50089D
:101F9C005104031DD22FD32FB32F7508D100740811
:101FAC00D0000800513475346934653472346534AA
:101FBC0073342034683461346334653472342034BF
:101FCC0075346E342034633461346D346234693466
:101FDC006F345F345F342834313429342034733413
:101FEC0069345F345F3428343234293420346E340D
:041FFC006F3400340A
:04400E00D420FF3F7C
:00000001FF
